:100000000C9434000C9449000C9449000C94490061
:100010000C9449000C9449000C9449000C9449003C
:100020000C9449000C9449000C9449000C9449002C
:100030000C9449000C9449000C9449000C9449001C
:100040000C9449000C9449000C9449000C9449000C
:100050000C9449000C9449000C9449000C944900FC
:100060000C9449000C94490011241FBECFEFD8E036
:10007000DEBFCDBF15E0A0E0B1E0E8ECFBE102C0DF
:1000800005900D92A030B107D9F70E94FB090C949E
:10009000E20D0C9400000C94F109CF92DF92EF92E4
:1000A000FF920F931F93CF93DF93CDB7DEB7A09747
:1000B0000FB6F894DEBF0FBECDBF0E94F9098FE3E3
:1000C0009FE10197F1F700C000008DE091E00E94F0
:1000D000E80483E00E94E90910E000E087E2C82E0E
:1000E00081E0D82ECE0101967C0180E00E94E909D2
:1000F0001F928F931F930F93DF92CF92FF92EF92F5
:100100000E940A0BC7010E94E8040F5F1F4F0FB641
:10011000F894DEBF0FBECDBF0630110531F70E9447
:10012000EF09A0960FB6F894DEBF0FBECDBFDF91EA
:10013000CF911F910F91FF90EF90DF90CF90089596
:1001400087E391E00E94E804209A28982FEF87E83F
:1001500093E1215080409040E1F700C00000289AD0
:100160002FEF81EE94E0215080409040E1F700C0F5
:1001700000000895BF92CF92DF92EF92FF920F930B
:100180001F93CF93DF93CDB7DEB7A0970FB6F89448
:10019000DEBF0FBECDBF0E94EF092FEF81EE94E0CE
:1001A000215080409040E1F700C0000010E000E0E6
:1001B00084E5E82E81E0F82ECE0101966C010E94C4
:1001C000F9098FE39FE10197F1F700C000008FEF7D
:1001D0000E94E90982E00E94E909B82E0E94EF0915
:1001E0008FE39FE10197F1F700C000001F92BF92DB
:1001F0001F930F93FF92EF92DF92CF920E940A0B10
:10020000C6010E94E8040FB6F894DEBF0FBECDBF52
:10021000B11019C08CE691E00E94E80485B190E22B
:10022000892785B980E0A0960FB6F894DEBF0FBE8F
:10023000CDBFDF91CF911F910F91FF90EF90DF9095
:10024000CF90BF9008959FEF20E782E0915020402B
:100250008040E1F700C000000F5F1F4F0A3011051A
:1002600009F0ADCFDFCF2F923F924F925F926F9206
:100270007F928F929F92AF92BF92CF92DF92EF9236
:10028000FF920F931F93CF93DF93CDB7DEB7A49761
:100290000FB6F894DEBF0FBECDBF5B012F5F2AA360
:1002A00021E029A3642E712C9CE9292E91E0392E9E
:1002B000CE0101967C0191E0940F9BA340954CA345
:1002C0002AEC422E21E0522EE9A1FAA1EF1306C03A
:1002D00082EF91E00E94E804912C84C08CE891E0C8
:1002E0000E94E8046501450110E000E006151705CD
:1002F00069F40E94BA00982E811120C08CEA91E026
:100300000E94E80499A19F5F99A3DECFF401819137
:100310004F011F928F931F930F933F922F92FF9243
:10032000EF920E940A0BC7010E94E8040F5F1F4F63
:100330000FB6F894DEBF0FBECDBFD8CF0E94F9092B
:10034000EFE3FFE13197F1F700C0000081E00E9488
:10035000E90980E00E94E90980E00E94E9098FEF45
:100360000E94E9098BA10E94E9098CA10E94E90978
:1003700084ED0E94E9098501060D171D84ED882E84
:10038000C016D10609F048C0882D81950E94E90960
:1003900080E00E94E9090E94EF09EFE1FEE4319755
:1003A000F1F700C000000E94F90982E00E94E9090B
:1003B000182F0E94EF091F921F935F924F92FF9296
:1003C000EF920E940A0BC7010E94E8040F900F9061
:1003D0000F900F900F900F90113071F58DED91E00F
:1003E0000E94E804892DA4960FB6F894DEBF0FBED4
:1003F000CDBFDF91CF911F910F91FF90EF90DF90D4
:10040000CF90BF90AF909F908F907F906F905F90B4
:100410004F903F902F900895F60181916F010E94B7
:10042000E909F60131978081880E8FE891E0019704
:10043000F1F700C00000A4CFFFEF21EE84E0F150FF
:1004400020408040E1F700C000005CCF84EA809348
:10045000BC008091BC0087FFFCCF8091B900887FF1
:10046000883051F08091B900887F803129F08091E7
:10047000B900887F90E0089590E080E0089580932F
:10048000BB0084E88093BC008091BC0087FFFCCF58
:100490008091B900887F883151F08091B900887FC0
:1004A000803429F08091B900887F90E0089590E031
:1004B00080E0089527B1206327B928B1662361F051
:1004C000206328B927B12F7C27B98130910551F0DD
:1004D00028F0029749F008952F7CF3CF88E48093A9
:1004E000B800089588E1FBCF8CE0F9CFFF920F931D
:1004F0001F93CF93DF93F82EEB01042F122F0E944E
:1005000026020097A9F48F2D880F0E943F020097C2
:1005100079F4FE01402F50E0A4E89F012C1B3D0B15
:10052000241735075CF0111103C024E92093BC00A7
:10053000DF91CF911F910F91FF900895219120930A
:10054000BB00A093BC002091BC0027FFFCCF2091F2
:10055000B900287F283209F32091B900287F622F43
:1005600070E0D9F2CB01E4CF0F931F93CF93DF93C9
:10057000082FEB01142F0E942602009741F5802FCF
:10058000880F81600E943F02009709F5FE01212F2C
:100590002150330BA90164EC9F012C1B3D0B241748
:1005A0003507D4F0C40FD51F24E82093BC00209158
:1005B000BC0027FFFCCF2091B900287F2835F9F037
:1005C0002091B900287F288324E92093BC00DF9183
:1005D000CF911F910F9108956093BC002091BC00B2
:1005E00027FFFCCF2091B900287F203529F02091EA
:1005F000B900287F2193D0CF2091BB00FBCF209161
:10060000BB00E1CFEF92FF920F931F93CF93DF9345
:1006100000D000D0CDB7DEB7982F907F962B292F32
:100620002C60298398609A8320E1829FC001112465
:10063000682B862F8C608B8368606C838E010F5FC4
:100640001F4F7E0185E0E80EF11C20E041E0B8017B
:1006500087E20E94760287EC90E00197F1F700C0F4
:1006600000000F5F1F4F0E151F0579F70F900F90B9
:100670000F900F90DF91CF911F910F91FF90EF900E
:10068000089560E00C94020361E00C9402032FEFE4
:1006900080E792E0215080409040E1F700C00000E8
:1006A00083E00E9441038FE19EE40197F1F700C0CF
:1006B000000083E00E94410387E592E00197F1F793
:1006C00000C0000083E00E94410382E00E944103D9
:1006D00088E20E9441038CE00E94410386E00E9470
:1006E000410381E00E9441038FE39FE10197F1F70D
:1006F00000C000000895CF93DF93EC018991811130
:1007000003C0DF91CF9108950E944403F7CF81E0A9
:100710000E9441038FE39FE10197F1F700C00000C1
:1007200008950F931F93CF93DF9300D000D0CDB7E0
:10073000DEB7009103011091040120910501309171
:10074000060109831A832B833C83E62F6111E1E0C4
:10075000EC0FFD2FF11D9181890F80680F900F9094
:100760000F900F90DF91CF911F910F910C94410347
:10077000CF93DF93CDB7DEB764970FB6F894DEBFA3
:100780000FBECDBF91E1E5EAF2E0DE0111960190E6
:100790000D929A95E1F7E82FE295EF7021E030E0B5
:1007A0002C0F3D1F2E0F311DF90190819A8B8F70F8
:1007B000E1E0F0E0EC0FFD1FE80FF11D80818B8B75
:1007C0001C8ACE0142960E947B0364960FB6F89471
:1007D000DEBF0FBECDBFDF91CF910895CF93DF93E2
:1007E0001F92CDB7DEB7198220E041E0BE016F5FF6
:1007F0007F4F88E60E9476020F90DF91CF91089597
:10080000982F92959F708F702AE0929F800D1124EF
:1008100008950F931F93CF93DF93CDB7DEB728973B
:100820000FB6F894DEBF0FBECDBF8C01188621E055
:1008300041E0BE01685F7F4F88E60E947602892B07
:1008400061F080E028960FB6F894DEBF0FBECDBFF2
:10085000DF91CF911F910F91089547E0BE016F5F27
:100860007F4F88E60E94B402892B59F789818F77E0
:100870000E940004F80180838A810E940004F8012C
:1008800081838B818F730E940004F80182838C81A5
:100890000E940004F80183838D810E940004F80106
:1008A00084838E810E940004F80185838F810E94D9
:1008B0000004F801868381E0C5CF6AE00E94A70AA0
:1008C000292F30E1839FC0011124822B08950F93BB
:1008D0001F93CF93DF93CDB7DEB72F970FB6F89462
:1008E000DEBF0FBECDBF8C01FC0180810E945D0484
:1008F0008987F80181810E945D048A87F8018281DD
:100900000E945D048B87F80183810E945D048C87BF
:10091000F80184810E945D048D87F80185810E9421
:100920005D048E87F80186810E945D048F87BE0179
:100930006F5F7F4F88E0FB0111928A95E9F7FE0116
:100940003996DE011296CE01409621912D93E8173B
:10095000F907D9F720E048E088E60E94760221E016
:10096000892B09F020E0822F2F960FB6F894DEBF76
:100970000FBECDBFDF91CF911F910F9108959C01C4
:1009800050E040E060E472E48FE090E00E94B30A3F
:10099000215031093093C5002093C40088E1809331
:1009A000C1008EE08093C20008959091C00095FF31
:1009B000FCCF8093C6000895CF93DF93EC0189911B
:1009C000811103C0DF91CF9108950E94D504F7CF24
:1009D0000E94DC048DE00E94D5048AE00C94D504CA
:1009E000EF92FF921F93CF93DF93CDB7DEB7A0971F
:1009F0000FB6F894DEBF0FBECDBF86EB92E00E942B
:100A0000E8040E94EF092FEF81EE94E0215080402E
:100A10009040E1F700C000000E94F9098FE39FE1D8
:100A20000197F1F700C000000E94EF099FEF29EF46
:100A300080E0915020408040E1F700C000000E941B
:100A4000F9098FE39FE10197F1F700C0000082E010
:100A50000E94E909182F1F928F9388ED92E09F93CF
:100A60008F93CE0101967C019F938F930E940A0B76
:100A7000C7010E94E8040F900F900F900F900F9005
:100A80000F90111125C08FEE92E00E94E8048FE1D3
:100A900093E00E94E80485E393E00E94E80486E482
:100AA00093E00E94E80487E593E00E94E80488E66A
:100AB00093E00E94E80480E0A0960FB6F894DEBFB1
:100AC0000FBECDBFDF91CF911F91FF90EF900895A2
:100AD00081E00E94E90985E50E94E90985E50E9417
:100AE000E90980E00E94E9090E94EF099FEF20E7F1
:100AF00082E0915020408040E1F700C0000081E09A
:100B0000DBCFAF92BF92CF92DF92EF92FF920F9323
:100B10001F93CF93DF93CDB7DEB7A6970FB6F894A8
:100B2000DEBF0FBECDBF89E793E00E94E80410E06E
:100B300000E094E9C92E93E0D92ECE0101967C0104
:100B40000E94F909EFE3FFE13197F1F700C00000DF
:100B500082E00E94E909B82E0E94EF091F92BF921D
:100B60001F930F93DF92CF92FF92EF920E940A0B96
:100B7000C7010E94E8040FB6F894DEBF0FBECDBFD8
:100B80009FEFB916A1F0EFE3FCE93197F1F700C050
:100B900000000F5F1F4F0A30110591F682ED93E0C0
:100BA00002C08FEB93E00E94E80480E044C083E041
:100BB0000E94E9095E0191E2A90EB11C10E000E07B
:100BC00087E2C82E81E0D82E80E00E94E909F50175
:100BD00081935F011F928F931F930F93DF92CF92A8
:100BE000FF92EF920E940A0BC7010E94E8040F5F78
:100BF0001F4F0FB6F894DEBF0FBECDBF06301105F4
:100C000019F70E94EF0989A18111CBCF8AA1811127
:100C1000C8CF8BA18F3F29F68CA18111C2CF8DA1A6
:100C20008F3F09F0BECF8EA18111BBCF8CEA93E03C
:100C30000E94E80481E0A6960FB6F894DEBF0FBECE
:100C4000CDBFDF91CF911F910F91FF90EF90DF907B
:100C5000CF90BF90AF900895CF92DF92EF92FF9226
:100C60000F931F93CF93DF93CDB7DEB7AC970FB63B
:100C7000F894DEBF0FBECDBF8C0184EF93E00E94DD
:100C8000E8040E94F9098FE39FE10197F1F700C0A2
:100C9000000082E00E94E90983E00E94E9097E01E8
:100CA00091E2E90EF11C6E01EDE2CE0ED11C80E066
:100CB0000E94E909F70181937F01EC15FD05B9F761
:100CC0000E94EF0989A181113CC08AA1811139C01C
:100CD0008BA18F3FB1F58EA1853D99F58FA1833012
:100CE00081F588A5F801808399A591832AA522839F
:100CF0001F922F931F929F931F928F9380E194E0F6
:100D00009F938F938E010F5F1F4F1F930F930E942E
:100D10000A0BC8010E94E8040FB6F894DEBF0FBEAC
:100D2000CDBF81E0AC960FB6F894DEBF0FBECDBF4D
:100D3000DF91CF911F910F91FF90EF90DF90CF90B7
:100D4000089583E294E00E94E80480E0EBCFAF9244
:100D5000BF92CF92DF92EF92FF920F931F93CF93A8
:100D6000DF9300D000D000D0CDB7DEB78DE394E0A4
:100D70000E94E8040E94F9098FE39FE10197F1F7CF
:100D800000C0000081E00E94E90980E00E94E909BA
:100D900080E00E94E9098FEF0E94E90982E00E9449
:100DA000E9098EEF0E94E90984ED0E94E90982E0D9
:100DB0000E94E90984ED0E94E90980E00E94E909A6
:100DC0000E94EF099FEFE0E7F2E09150E040F04031
:100DD000E1F700C000000E9481058823B9F08DE58D
:100DE00094E00E94E804F12C8F2D26960FB6F8941B
:100DF000DEBF0FBECDBFDF91CF911F910F91FF904E
:100E0000EF90DF90CF90BF90AF9008950E94810542
:100E1000F82E8823D9F1CE0104960E942C0688234F
:100E200019F30E94870361E080E00E94910383E749
:100E300094E00E947B038E010C5F1F4FE12C8EE13A
:100E4000C82E84E0D82ECE0101965C01F801819174
:100E50008F011F928F93DF92CF92BF92AF920E9429
:100E60000A0BC5010E947B030F900F900F900F900B
:100E70000F900F90F2E0EF1621F081E994E00E94CC
:100E80007B03E39423E0E212E1CFAECFFF24F3949F
:100E9000ABCFFC01608311820895FC0194B1808185
:100EA00021E030E001C0220F8A95EAF7892F822BDA
:100EB00084B90C94F1090E94F9098FE39FE101972D
:100EC000F1F700C000000C94EF096F927F928F92AF
:100ED0009F92AF92BF92CF92DF92EF92FF920F93C9
:100EE0001F93CF93DF93CDB7DEB7E4970FB6F89497
:100EF000DEBF0FBECDBF5C013B0188E794E00E94DE
:100F0000E8040E94EF098FE39FE10197F1F700C029
:100F100000000E94F909EFE3FFE13197F1F700C00B
:100F2000000082E00E94E90980E00E94E90981E076
:100F30000E94E90980E00E94E90980E00E94E90935
:100F40008FEF0E94E90984E00E94E9098CEF0E947A
:100F5000E90984ED0E94E9098AE40E94E90981E037
:100F60000E94E90980E00E94E90981EE0E94E909F6
:100F700080E00E94E9090E94EF09FFEF29E688E17D
:100F8000F15020408040E1F700C000000E94F909C4
:100F9000EFE3FFE13197F1F700C0000082E00E942B
:100FA000E9091F928F9383E994E09F938F938E01B9
:100FB0000F5F1F4F1F930F930E940A0BC8010E94DF
:100FC000E80483E00E94E9096E01F1E2CF0ED11C32
:100FD0004E0125E3820E911C0F900F900F900F9001
:100FE0000F900F90760180E00E94E909F70181934C
:100FF0007F01E815F905B9F70E94EF0987EA94E047
:101000000E94E804F12CE12C87EB882E84E0982ED6
:10101000F60181916F011F928F93FF92EF929F9241
:101020008F921F930F930E940A0BC8010E94E8043D
:10103000FFEFEF1AFF0A0FB6F894DEBF0FBECDBF69
:1010400094E1E916F10421F789A1811106C08AA172
:10105000811103C08BA18F3F31F088EC94E00E9496
:10106000E80480E027C088A58130C9F54DA5F301CB
:10107000408350E0BE01625D7F4FC5010E94010BBD
:101080008CE792E00E94E804F30180811F928F9325
:1010900080EE94E09F938F931F930F930E940A0B0F
:1010A000C8010E94E8040F900F900F900F900F90CE
:1010B0000F9081E0E4960FB6F894DEBF0FBECDBF6F
:1010C000DF91CF911F910F91FF90EF90DF90CF9024
:1010D000BF90AF909F908F907F906F9008958FEE0C
:1010E00094E0BDCFCF930E94F90982E00E94E90904
:1010F00080E00E94E909C82F0E94EF098C2F8170BF
:10110000CF910895BF92CF92DF92EF92FF920F930B
:101110001F93CF93DF936C01F62EE72EB42E890137
:10112000D0E0C0E0C6010E9472088823F9F00E9456
:10113000F909EFE9FFE03197F1F700C0000083E023
:101140000E94E90980E00E94E9098823F9F0CCEFC8
:10115000DFEF0E94EF09CE01DF91CF911F910F9138
:10116000FF90EF90DF90CF90BF9008958FE99FE0C0
:101170000197F1F700C0000021960115110591F2C9
:101180000C171D0778F6CFEFDFEFE5CF80E00E9468
:10119000E909182F8111DBCF80E00E94E9098F3F18
:1011A000B1F680E00E94E909C82F80E00E94E909B9
:1011B0008C0F69F6F601D1810E94E909853D39F667
:1011C00080E00E94E90991E09D0F8913C0CFC250D1
:1011D000BC16A8F0DA52DF2C0F2D1E2D802F8D1992
:1011E0008C17C0F080E00E94E9098D0F09F0AFCFA5
:1011F0000E94E909D0E0ADCF0E94E9091F5F80E0BD
:101200001C17D0F30E94E90980E00E94E909CBEFA6
:10121000DFEF9FCF80E00E94E909F80181938F0101
:10122000D80FDCCFCF92DF92EF92FF920F931F93F4
:10123000CF93DF93F62E172FE42E69010E94F90950
:101240008FE39FE10197F1F700C0000081E00E9469
:10125000E90980E00E94E90980E00E94E9098FEF36
:101260000E94E909CE2DC00F81E08C0F0E94E90990
:101270008C2F80950E94E90984ED0E94E909CF2D09
:10128000D12FEC0EFD2EF11C14EDCE15DF05C1F4AF
:10129000E6017601E00EF11CCE15DF05C9F4812FC1
:1012A00081950E94E90980E00E94E909DF91CF91D0
:1012B0001F910F91FF90EF90DF90CF900C94EF096A
:1012C00089910E94E909FE0131978081180FDDCFD5
:1012D00089910E94E909FE0131978081180FDCCFC6
:1012E000CF92DF92EF92FF920F931F93CF93DF93F2
:1012F000CDB7DEB72C970FB6F894DEBF0FBECDBFCB
:1013000086E0E7E0F1E0DE01179601900D928A9504
:10131000E1F70E94F9098FE99FE00197F1F700C01A
:10132000000083E00E94E9098E010F5F1F4F6E01EC
:1013300097E0C90ED11C780180E00E94E909F8010C
:1013400081938F01EC15FD05B9F70E94EF0946E086
:1013500050E0B801C7010E94F40A2C960FB6F89429
:10136000DEBF0FBECDBFDF91CF911F910F91FF90D8
:10137000EF90DF90CF9008950F931F93CF93DF935B
:10138000EC01FB0180818983CE010E9412091AE0E1
:10139000CE010E947208882339F0CE010E947009A4
:1013A000882359F08DEF09C08FE99FE00197F1F78D
:1013B00000C00000115061F78EEFDF91CF911F91B7
:1013C0000F910895249A84B1837D84B980E48CBD03
:1013D00008958EBD0DB407FEFDCF8EB508952A9AEF
:1013E000089584B18C6284B9249881E58CBD0C94F5
:1013F000EF092A980895CF93DF93CDB7DEB76997A9
:101400000FB6F894DEBF0FBECDBF80E895E20E9414
:10141000BF0461E082E090E00E945A020E9447030C
:1014200083E192E00E947B032FEF83ED90E3215054
:1014300080409040E1F700C0000083E58CBD0E9431
:10144000F1096AE0CE0148960E944907CE0148960C
:101450000E944D07CE0148960E945B0761E080E044
:101460000E94910382E292E00E947B032FEF83EDC2
:1014700090E3215080409040E1F700C00000C09010
:101480000001D0900101E09002010E94870380E3F7
:1014900092E00E947B038CE392E00E94E804CD8AF4
:1014A000DE8AEF8A23E043E0BE016B5E7F4FCE0110
:1014B00048960E9433018823D1F181E592E00E9491
:1014C000E80410E0CE0148960E94720881110FC016
:1014D000143629F48BE692E00E94E804D6CF8FE31D
:1014E0009CE90197F1F700C000001F5FEBCF1436B5
:1014F00089F328EE33E044E1BE016F5F7F4FCE01F8
:1015000048960E948208181619063CF48981813099
:1015100021F48CE792E00E94E8049FEF21EE84E042
:10152000915020408040E1F700C00000AECF88E835
:1015300092E00E94E8040E94A0009FEF23EC89E063
:10154000915020408040E1F700C00000E6CF991B99
:1015500079E004C0991F961708F0961B881F7A95AA
:10156000C9F780950895052E97FB1EF400940E94FC
:10157000CA0A57FD07D00E94D20A07FC03D04EF4D6
:101580000C94CA0A50954095309521953F4F4F4F86
:101590005F4F089590958095709561957F4F8F4F1F
:1015A0009F4F0895A1E21A2EAA1BBB1BFD010DC07F
:1015B000AA1FBB1FEE1FFF1FA217B307E407F50703
:1015C00020F0A21BB30BE40BF50B661F771F881FDF
:1015D000991F1A9469F760957095809590959B0175
:1015E000AC01BD01CF010895FB01DC0104C08D9168
:1015F0000190801921F441505040C8F7881B990B85
:101600000895FB01DC0102C001900D924150504051
:10161000D8F70895AEE0B0E0E0E1FBE00C94B90D3E
:101620000D891E8986E08C831A8309838FEF9FE7DB
:101630009E838D83AE01475E5F4F6F89788DCE01AB
:1016400001960E942D0B2F813885020F131FF80180
:1016500010822E96E4E00C94D50DABE0B0E0E3E30D
:10166000FBE00C94AB0D7C013B018A01FC0117826D
:101670001682838181FFC8C1CE0101965C01F7010A
:101680009381F30193FD859193FF81913F0188231D
:1016900009F453C1853239F493FD859193FF81910B
:1016A0003F01853229F4B70190E00E941D0DE7CF7C
:1016B000912C212C312CFFE1F31538F08B3211F1F4
:1016C00090F4803209F1833229F137FC3CC020EDDF
:1016D000280F2A3050F536FE20C08AE0989E200D53
:1016E0001124922E06C08D3291F0803371F76894E8
:1016F00030F8F30193FD859193FF81913F018111B2
:10170000DACF21C0689431F8689432F8F2CF689447
:1017100033F8EFCF689434F8ECCFEAE02E9E200D3A
:101720001124222E689435F8E4CF8E3229F436FC49
:1017300004C1689436F8DDCF8C3619F4689437F814
:10174000D8CF8836B1F2982F9F7D95549330E0F032
:101750008336A1F18337C1F1833509F063C02801D5
:10176000F2E04F0E511CF801C080D180692D70E06D
:1017700036FC02C06FEF7FEFC6010E94070D4C01DF
:10178000689437F882010AC00C5F1F4FFFE3F983AA
:1017900088248394912C6501E89437F833FE2DC09A
:1017A000522C8114910471F5552009F468CFB701CA
:1017B00080E290E00E941D0D5A94F6CFF8018081DE
:1017C00089830E5F1F4FE4CF2801F2E04F0E511CBA
:1017D000F801C080D180692D70E036FC02C06FEF47
:1017E0007FEFC6010E94120D4C018201D5CFB701D7
:1017F00080E290E00E941D0D2A942814190409F03B
:10180000B0F7CECFF60137FC859137FE81916F019D
:10181000B70190E00E941D0D51105A94F1E08F1A0B
:101820009108BFCF843619F0893609F077C0F801E6
:1018300037FE6BC060817181828193810C5F1F4F85
:10184000F32DFF763F2E97FF09C0909580957095F8
:1018500061957F4F8F4F9F4F689437F82AE030E0B3
:10186000A5010E944D0DC82ECA188C2C432C36FEA3
:101870000CC0E89440F8C91440F434FE05C032FCB2
:1018800003C0F32DFE7E4F2E892C44FE95C0FE0131
:10189000EC0DF11D8081803309F087C0242D297E55
:1018A000422E842D8870582E43FC95C040FE8FC078
:1018B0009C2C821418F42C0C922C981844FE91C085
:1018C000B70180E390E00E941D0D42FE09C088E749
:1018D00090E041FE02C088E590E0B7010E941D0D36
:1018E000C91408F48AC0CA94D12C9FEFC91AD90A26
:1018F000CA0CDB1CF60182916F01B70190E00E94D7
:101900001D0DAC14BD04B1F74FCF60817181072E5E
:10191000000C880B990B0E5F1F4F92CFD32CE894CD
:10192000D4F82AE030E0853739F1232D297FD22EF3
:101930008F3601F148F48835A9F0F7018681978147
:101940002B96E2E10C94C70D803749F08837A9F750
:10195000D4FE02C06894D2F820E130E00DC0689453
:10196000D4F8F6CF34FE03C0822F8660D82E20E153
:1019700032E002C028E030E0F801D7FE0FC06081FD
:101980007181828193810C5F1F4FA5010E944D0DD3
:10199000C82ECA183D2CE89437F867CF6081718152
:1019A00090E080E00E5F1F4FF0CF42FC02C08394B6
:1019B00078CF8394839475CF842D867809F471CF82
:1019C000F6CFB70180E290E00E941D0D839482144F
:1019D000C0F3512C73CF522C5818821408F46ECFD8
:1019E000F8CF842D867809F47BCF8BE241FE80E22C
:1019F00047FC8DE2B70190E071CFB70180E390E042
:101A00000E941D0D9A946CCF8FEF9FEF99CFFC0130
:101A10000590615070400110D8F7809590958E0F19
:101A20009F1F0895FC016150704001900110D8F78C
:101A3000809590958E0F9F1F08950F931F93CF93BE
:101A4000DF93182F092FEB018B8181FD09C01FEF58
:101A50000FEF812F902FDF91CF911F910F9108955C
:101A600082FF14C02E813F818C819D812817390708
:101A70003CF4E881F981CF01019699838883108332
:101A80008E819F8101969F838E83E3CFE885F985C0
:101A9000812F0995892BA1F3DACFFA01AA272830E3
:101AA00051F1203181F1E8946F936E7F6E5F7F4F2B
:101AB0008F4F9F4FAF4FB1E03ED0B4E03CD0670FA7
:101AC000781F891F9A1FA11D680F791F8A1F911DFA
:101AD000A11D6A0F711D811D911DA11D20D009F44A
:101AE00068943F912AE0269F11243019305D31938C
:101AF000DEF6CF010895462F4770405D4193B3E075
:101B00000FD0C9F7F6CF462F4F70405D4A3318F01B
:101B1000495D31FD4052419302D0A9F7EACFB4E0CC
:101B2000A6959795879577956795BA95C9F7009784
:101B30006105710508959B01AC010A2E0694579525
:101B4000479537952795BA95C9F7620F731F841F7C
:101B5000951FA01D08952F923F924F925F926F9212
:101B60007F928F929F92AF92BF92CF92DF92EF922D
:101B7000FF920F931F93CF93DF93CDB7DEB7CA1BAE
:101B8000DB0B0FB6F894DEBF0FBECDBF09942A88D9
:101B9000398848885F846E847D848C849B84AA8481
:101BA000B984C884DF80EE80FD800C811B81AA810E
:101BB000B981CE0FD11D0FB6F894DEBF0FBECDBFD9
:081BC000ED010895F894FFCF38
:101BC8004A0100004014540000FF00FF000A52655B
:101BD8006164696E672041434B206672616D6520C0
:101BE80062797465733A0041434B5B25645D3A2022
:101BF80030782530325800506572666F726D696EA4
:101C080067206861726477617265207265736574B4
:101C18002E2E2E0053746174757320636865636B90
:101C28002025643A20307825303258004E6F2072D3
:101C38006573706F6E7365202D20636865636B2014
:101C4800636F6E6E656374696F6E73000A436F6DC0
:101C58006D616E642062797465733A00636D645BCC
:101C680025645D3A2030782530325800446576691D
:101C78006365206E6F742072656164792C207265CB
:101C8800747279696E672E2E2E0041434B2073744F
:101C9800617475733A2030782530325800436F6D7F
:101CA8006D616E642041434B20726563656976659A
:101CB8006400436F6D6D616E64206661696C656474
:101CC800206166746572206D61782072657472692E
:101CD80065730053797374656D20496E69742E2E8F
:101CE8002E00504E35333220496E69742E2E2E0048
:101CF8005363616E6E696E672E2E2E000A576169F6
:101D080074696E6720666F7220636172642E2E2E6E
:101D180000436F6D6D616E642073656E742073751A
:101D2800636365737366756C6C7900526573706F65
:101D38006E73652074696D656F75740043617264B4
:101D480020666F756E642100436F6D6D616E64204F
:101D58006661696C65642061667465722072657479
:101D6800726965730030313233343536373839416A
:101D7800424344454600496E697469616C697A69F1
:101D88006E6720504E35333220696E2053504920FB
:101D98006D6F64652E2E2E00496E697469616C2022
:101DA8007374617475733A20307825303258004E58
:101DB8006F20726573706F6E7365202D2063686580
:101DC800636B205350492073776974636820616E90
:101DD8006420636F6E6E656374696F6E733A002D6D
:101DE800205377697463682073657420746F2027A3
:101DF80053504927002D204D4F5349202D3E205048
:101E0800696E203131002D204D49534F202D3E2041
:101E180050696E203132002D2053434B20202D3E37
:101E28002050696E203133002D2053532020202D5F
:101E38003E2050696E2031300052656164696E67DA
:101E48002041434B20696E20535049206D6F6465D3
:101E58002E2E2E0053746174757320726574727916
:101E68002025643A203078253032580056616C6954
:101E7800642041434B207265636569766564004957
:101E88006E76616C69642041434B20666F726D61A8
:101E98007400446576696365206E6F74207265739B
:101EA800706F6E64696E6720696E20535049206DAB
:101EB8006F64650052656164696E67206669726D5A
:101EC800776172652076657273696F6E2E2E2E00AB
:101ED80046573A20253032582E253032582E253094
:101EE800325800496E76616C6964206669726D7754
:101EF80061726520726573706F6E736500546573E7
:101F080074696E6720504E35333220535049206330
:101F18006F6E6E656374696F6E2E2E2E004E6F2085
:101F280041434B206672616D652072656365697611
:101F380065640046573A2000506F6C6C696E6720E4
:101F4800666F72204D494641524520636172642E86
:101F58002E2E0053746174757320627974653A206B
:101F680030782530325800526573706F6E73652073
:101F780062797465733A00627974655B25645D3AC9
:101F88002030782530325800496E76616C696420BB
:101F9800726573706F6E7365206865616465720041
:101FA800554944204C656E6774683A202564004E94
:101FB8006F2063617264206465746563746564008E
:00000001FF
