:100000000C9434000C9449000C9449000C94490061
:100010000C9449000C9449000C9449000C9449003C
:100020000C9449000C9449000C9449000C9449002C
:100030000C9449000C9449000C9449000C9449001C
:100040000C9449000C9449000C9449000C9449000C
:100050000C9449000C9449000C9449000C944900FC
:100060000C9449000C94490011241FBECFEFD8E036
:10007000DEBFCDBF11E0A0E0B1E0ECE1FAE002C0EC
:1000800005900D92A23CB107D9F70E944D040C9443
:100090000C050C94000084EA8093BC008091BC00A5
:1000A00087FFFCCF8091B900887F883051F0809124
:1000B000B900887F803129F08091B900887F90E075
:1000C000089590E080E008958093BB0084E88093D9
:1000D000BC008091BC0087FFFCCF8091B900887F75
:1000E000883151F08091B900887F803429F0809167
:1000F000B900887F90E0089590E080E0089527B1EE
:10010000206327B928B1662361F0206328B927B19D
:100110002F7C27B98130910551F028F0029749F0E2
:1001200008952F7CF3CF88E48093B800089588E188
:10013000FBCF8CE0F9CFFF920F931F93CF93DF9308
:10014000F82EEB01042F122F0E944B000097A9F408
:100150008F2D880F0E946400009779F4FE01402FD4
:1001600050E0A4E89F012C1B3D0B241735075CF0E1
:10017000111103C024E92093BC00DF91CF911F919E
:100180000F91FF90089521912093BB00A093BC0094
:100190002091BC0027FFFCCF2091B900287F283296
:1001A00009F32091B900287F622F70E0D9F2CB01CA
:1001B000E4CF0F931F93CF93DF93082FEB01142FFE
:1001C0000E944B00009741F5802F880F81600E94AC
:1001D0006400009709F5FE01212F2150330BA9017E
:1001E00064EC9F012C1B3D0B24173507D4F0C40F82
:1001F000D51F24E82093BC002091BC0027FFFCCF32
:100200002091B900287F2835F9F02091B900287F86
:10021000288324E92093BC00DF91CF911F910F9197
:1002200008956093BC002091BC0027FFFCCF209173
:10023000B900287F203529F02091B900287F21932B
:10024000D0CF2091BB00FBCF2091BB00E1CFEF923C
:10025000FF920F931F93CF93DF9300D000D0CDB7C1
:10026000DEB7982F907F962B292F2C6029839860DA
:100270009A8320E1829FC0011124682B862F8C6015
:100280008B8368606C838E010F5F1F4F7E0185E05A
:10029000E80EF11C20E041E0B80187E20E949B00DB
:1002A00087EC90E00197F1F700C000000F5F1F4F4F
:1002B0000E151F0579F70F900F900F900F90DF919B
:1002C000CF911F910F91FF90EF90089560E00C94F3
:1002D000270161E00C9427012FEF80E792E0215085
:1002E00080409040E1F700C0000083E00E9466017A
:1002F0008FE19EE40197F1F700C0000083E00E94C7
:10030000660187E592E00197F1F700C0000083E005
:100310000E94660182E00E94660188E20E946601F6
:100320008CE00E94660186E00E94660181E00E94E6
:1003300066018FE39FE10197F1F700C00000089587
:10034000CF93DF93EC018991811103C0DF91CF91AD
:1003500008950E946901F7CF81E00E9466018FE352
:100360009FE10197F1F700C0000008950F931F93DC
:10037000CF93DF9300D000D0CDB7DEB700910A0154
:1003800010910B0120910C0130910D0109831A830A
:100390002B833C83E62F6111E1E0EC0FFD2FF11D73
:1003A0009181890F80680F900F900F900F90DF91CF
:1003B000CF911F910F910C946601CF93DF93CDB72E
:1003C000DEB764970FB6F894DEBF0FBECDBF91E1E4
:1003D000EDE4F1E0DE01119601900D929A95E1F7BE
:1003E000E82FE295EF7021E030E02C0F3D1F2E0F3B
:1003F000311DF90190819A8B8F70E1E0F0E0EC0FF4
:10040000FD1FE80FF11D80818B8B1C8ACE01429667
:100410000E94A00164960FB6F894DEBF0FBECDBF58
:10042000DF91CF910895549A5C982FEF81EE94E07C
:10043000215080409040E1F700C000005C9A2FEF0F
:1004400081EE94E0215080409040E1F700C0000030
:10045000259A2D980895FF920F931F93CF93DF93C2
:10046000CDB7DEB72E970FB6F894DEBF0FBECDBF67
:100470008C01F62E88E0EEE0F1E0DE0111960190AD
:100480000D928A95E1F720E048E0BE016F5F7F4F53
:1004900084E20E949B00892B11F020E023C02FEF03
:1004A00080E792E0215080409040E1F700C00000DA
:1004B00046E0BE01675F7F4F84E20E94D900892B2E
:1004C00061F72FEF80E792E0215080409040E1F704
:1004D00000C000004F2DB80184E20E94D90021E045
:1004E000892BD9F6822F2E960FB6F894DEBF0FBE59
:1004F000CDBFDF91CF911F910F91FF900895CF92C3
:10050000DF92EF92FF921F93CF93DF93CDB7DEB7C9
:10051000AA970FB6F894DEBF0FBECDBF6C017B016A
:100520001AA621E041E0BE01665D7F4F84E20E9491
:100530009B002FEF41EE54E0215040405040E1F746
:1005400000C000008AE0E6E1F1E0DE015A96019089
:100550000D928A95E1F710E08091B900887F88318B
:1005600079F11436E9F40E94AC018EE591E00E9425
:10057000A00161E080E00E94B6018EE691E00E9459
:10058000A00180E0AA960FB6F894DEBF0FBECDBFE3
:10059000DF91CF911F91FF90EF90DF90CF90089562
:1005A00021E041E0BE01665D7F4F84E20E949B0036
:1005B0008FE39CE90197F1F700C000001F5FCCCFEB
:1005C000143689F221E04AE0BE01665E7F4F84E284
:1005D0000E949B00892B69F00E94AC0188E791E0A2
:1005E0000E94A00161E080E00E94B60186E891E0EF
:1005F000C6CF9FEFA1EEB4E09150A040B040E1F72C
:1006000000C0000046E0BE016C5D7F4F84E20E94A6
:10061000D900892B69F00E94AC018EE891E00E941C
:10062000A00161E080E00E94B6018CE991E0A7CFD3
:10063000EFEFF1EE24E0E150F0402040E1F700C0A0
:10064000000049E1BE016F5F7F4F84E20E94D90044
:10065000892B69F00E94AC018EE891E00E94A00114
:1006600061E080E00E94B60180EA91E088CF888551
:10067000813031F02D980E94AC0189EA91E07FCF62
:100680008D858830C8F4D7018C9380E0F701908184
:100690008917B0F02D9A0E94AC0187EB91E00E947F
:1006A000A00161E080E00E94B60110E0D7018C91CA
:1006B0001817B0F081E066CF87E0F7018083E5CFBF
:1006C000282F30E0F601E20FF31F4EE050E04C0F10
:1006D0005D1F240F351FD9019C9190838F5FD6CF6A
:1006E000F601E10FF11D80810E94DD018BE491E0B4
:1006F0000E94A0011F5FDACFCF93DF931F92CDB787
:10070000DEB7198220E041E0BE016F5F7F4F88E6CF
:100710000E949B000F90DF91CF910895982F9295A2
:100720009F708F702AE0929F800D112408950F937F
:100730001F93CF93DF93CDB7DEB728970FB6F8940A
:10074000DEBF0FBECDBF8C01188621E041E0BE01A7
:10075000685F7F4F88E60E949B00892B61F080E0F4
:1007600028960FB6F894DEBF0FBECDBFDF91CF91B4
:100770001F910F91089547E0BE016F5F7F4F88E69C
:100780000E94D900892B59F789818F770E948E03A7
:10079000F80180838A810E948E03F80181838B8116
:1007A0008F730E948E03F80182838C810E948E03D6
:1007B000F80183838D810E948E03F80184838E81EA
:1007C0000E948E03F80185838F810E948E03F801B9
:1007D000868381E0C5CF6AE00E940005292F30E1C1
:1007E000839FC0011124822B08950F931F93CF93F1
:1007F000DF93CDB7DEB72F970FB6F894DEBF0FBEED
:10080000CDBF8C01FC0180810E94EB038987F80138
:1008100081810E94EB038A87F80182810E94EB03A9
:100820008B87F80183810E94EB038C87F801848118
:100830000E94EB038D87F80185810E94EB038E8770
:10084000F80186810E94EB038F87BE016F5F7F4FA7
:1008500088E0FB0111928A95E9F7FE013996DE01E5
:100860001296CE01409621912D93E817F907D9F7FA
:1008700020E048E088E60E949B0021E0892B09F0F7
:1008800020E0822F2F960FB6F894DEBF0FBECDBFAB
:10089000DF91CF911F910F910895CF93DF93CDB743
:1008A000DEB764970FB6F894DEBF0FBECDBF61E030
:1008B00081E090E00E947F002FEF89E698E12150CF
:1008C00080409040E1F700C000000E946C012FEFD3
:1008D00089E698E1215080409040E1F700C0000097
:1008E00080E291E00E94A0010E9413022FEF89E6AE
:1008F00098E1215080409040E1F700C0000061E0A5
:1009000080E00E94B60188E291E00E94A0011C8A6A
:1009100021E041E0BE016C5E7F4F84E20E949B00BB
:10092000009719F00E94DD01FFCF2FEF81EE94E0D8
:10093000215080409040E1F700C000008AE0E0E0F4
:10094000F1E0DE01119601900D928A95E1F720E029
:100950004AE0BE016F5F7F4F84E20E949B000097D8
:1009600019F00E94DD01FFCF2FEF81EE94E02150BE
:1009700080409040E1F700C000000E94AC018FE28F
:1009800091E00E94A00110E0BE016D5E7F4FCE019C
:100990000B960E947F02082F882349F111110DC088
:1009A0000E94AC018DE391E00E94A00161E080E033
:1009B0000E94B6018B89181758F02FEF83ED90E352
:1009C000215080409040E1F700C00000102FDCCFA4
:1009D000EBE0F0E0EC0FFD1FE10FF11D80810E94C4
:1009E000DD018BE491E00E94A0011F5FE3CF1123A2
:1009F00021F30E94AC018FE291E00E94A001DDCFC3
:100A0000991B79E004C0991F961708F0961B881F60
:0C0A10007A95C9F780950895F894FFCFFF
:100A1C000000FF04FCD4320101000040145400001B
:100A2C00FF02FED4022A0000FF05FBD44A0100009D
:100A3C00496E69742E2E2E0057616B652E2E005256
:100A4C006561647920746F207363616E0043617219
:100A5C006420446574656374656400200030313231
:100A6C0033343536373839414243444546005469AE
:100A7C006D656F75742077616974696E6700666F58
:100A8C007220736C617665004572726F72207365AB
:100A9C006E64696E6700636F6D6D616E64004572A4
:100AAC00726F722072656164696E670041434B001E
:100ABC00726573706F6E7365004E6F206361726444
:100ACC0020666F756E64004361726420666F756E8C
:020ADC006400B4
:00000001FF
