:100000000C9434000C9449000C9449000C94490061
:100010000C9449000C9449000C9449000C9449003C
:100020000C9449000C9449000C9449000C9449002C
:100030000C9449000C9449000C9449000C9449001C
:100040000C9449000C9449000C9449000C9449000C
:100050000C9449000C9449000C9449000C944900FC
:100060000C9449000C94490011241FBECFEFD8E036
:10007000DEBFCDBF11E0A0E0B1E0EAEEF5E002C0E6
:1000800005900D92A233B107D9F70E94B0020C94EB
:10009000F3020C940000259A089585B190E2892717
:1000A00085B908959C0150E040E060E472E48FE07F
:1000B00090E00E94B202215031093093C500209394
:1000C000C40088E18093C1008EE08093C20008954F
:1000D0009091C00095FFFCCF8093C6000895CF9308
:1000E000DF93EC018991811103C0DF91CF910895D5
:1000F0000E946800F7CF1F93CF93DF93CDB7DEB791
:1001000061970FB6F894DEBF0FBECDBF182F81E107
:10011000E4E0F1E0DE01119601900D928A95E1F79D
:10012000E12FE295EF7081E090E08C0F9D1F8E0F24
:10013000911DFC0180810E946800E12FEF7081E039
:1001400090E08C0F9D1F8E0F911DFC0180816196A8
:100150000FB6F894DEBF0FBECDBFDF91CF911F91D8
:100160000C9468000E944B0080E895E20E945200C7
:1001700061E090E080E00E941C01C1E020E040E0EE
:1001800070E060E08C2F0E943801892BB9F485E182
:1001900091E00E946F008C2F0E947B008EE291E024
:1001A0000E946F000E944D002FEF89E698E12150D8
:1001B00080409040E1F700C00000E9CF8FE39CE968
:1001C0000197F1F700C00000CF5FC038B9F6FFCF4C
:1001D00084EA8093BC008091BC0087FFFCCF8091B3
:1001E000B900887F883051F08091B900887F8031D4
:1001F00029F08091B900887F90E0089590E080E038
:1002000008958093BB0084E88093BC008091BC007B
:1002100087FFFCCF8091B900887F883151F08091B1
:10022000B900887F803429F08091B900887F90E000
:10023000089590E080E0089527B1206327B928B1A0
:10024000662361F0206328B927B12F7C27B981305C
:10025000910551F028F0029749F008952F7CF3CFD3
:1002600088E48093B800089588E1FBCF8CE0F9CF53
:10027000FF920F931F93CF93DF93F82EEB01042F80
:10028000122F0E94E8000097A9F48F2D880F0E947A
:100290000101009779F4FE01402F50E0A4E89F018E
:1002A0002C1B3D0B241735075CF0111103C024E90A
:1002B0002093BC00DF91CF911F910F91FF90089583
:1002C00021912093BB00A093BC002091BC0027FF8C
:1002D000FCCF2091B900287F283209F32091B90082
:1002E000287F622F70E0D9F2CB01E4CF0F931F93E8
:1002F000CF93DF93082FEB01142F0E94E8000097A3
:1003000041F5802F880F81600E940101009709F557
:10031000FE01212F2150330BA90164EC9F012C1BFE
:100320003D0B24173507D4F0C40FD51F24E82093C4
:10033000BC002091BC0027FFFCCF2091B900287F92
:100340002835F9F02091B900287F288324E92093EB
:10035000BC00DF91CF911F910F9108956093BC0075
:100360002091BC0027FFFCCF2091B900287F2035C9
:1003700029F02091B900287F2193D0CF2091BB0094
:10038000FBCF2091BB00E1CFEF92FF920F931F9321
:10039000CF93DF9300D000D0CDB7DEB7982F907FFA
:1003A000962B292F2C60298398609A8320E1829FC5
:1003B000C0011124682B862F8C608B8368606C834E
:1003C0008E010F5F1F4F7E0185E0E80EF11C20E0DB
:1003D00041E0B80187E20E94380187EC90E0019784
:1003E000F1F700C000000F5F1F4F0E151F0579F7D2
:1003F0000F900F900F900F90DF91CF911F910F9161
:10040000FF90EF90089560E00C94C40161E00C94BB
:10041000C4012FEF80E792E0215080409040E1F747
:1004200000C0000083E00E9403028FE19EE4019778
:10043000F1F700C0000083E00E94030287E592E02C
:100440000197F1F700C0000083E00E94030282E000
:100450000E94030288E20E9403028CE00E940302D1
:1004600086E00E94030281E00E9403028FE39FE185
:100470000197F1F700C000000895CF93DF93EC01DE
:100480008991811103C0DF91CF9108950E940602E6
:10049000F7CF81E00E9403028FE39FE10197F1F71C
:1004A00000C0000008950F931F93CF93DF9300D0F7
:1004B00000D0CDB7DEB7009100011091010120916D
:1004C00002013091030109831A832B833C83E62FB9
:1004D0006111E1E0EC0FFD2FF11D9181890F806822
:1004E0000F900F900F900F90DF91CF911F910F9170
:1004F0000C940302CF93DF93CDB7DEB764970FB6AA
:10050000F894DEBF0FBECDBF91E1E4E0F1E0DE0183
:10051000119601900D929A95E1F7E82FE295EF7010
:1005200021E030E02C0F3D1F2E0F311DF90190818D
:100530009A8B8F70E1E0F0E0EC0FFD1FE80FF11DEA
:1005400080818B8B1C8ACE0142960E943D0264966C
:100550000FB6F894DEBF0FBECDBFDF91CF910895E7
:100560000E94B200052E97FB1EF400940E94C9025F
:1005700057FD07D00E94D10207FC03D04EF40C9423
:10058000C90250954095309521953F4F4F4F5F4F91
:10059000089590958095709561957F4F8F4F9F4FEF
:1005A0000895A1E21A2EAA1BBB1BFD010DC0AA1FB4
:1005B000BB1FEE1FFF1FA217B307E407F50720F0CC
:1005C000A21BB30BE40BF50B661F771F881F991F47
:1005D0001A9469F760957095809590959B01AC0190
:0A05E000BD01CF010895F894FFCF8C
:1005EA0000401454303132333435363738394142C9
:1005FA004344454600446574656374656420493222
:10060A004320616464726573733A203078000D0A7E
:02061A000000DE
:00000001FF
